{
    "contractName": "EthBridgeService",
    "abi": [
        {
            "anonymous": false,
            "inputs": [
                {
                    "indexed": false,
                    "internalType": "address",
                    "name": "from",
                    "type": "address"
                },
                {
                    "indexed": false,
                    "internalType": "address",
                    "name": "to",
                    "type": "address"
                },
                {
                    "indexed": false,
                    "internalType": "address",
                    "name": "collection",
                    "type": "address"
                },
                {
                    "indexed": false,
                    "internalType": "string",
                    "name": "tokenURI",
                    "type": "string"
                }
            ],
            "name": "MintETH",
            "type": "event"
        },
        {
            "inputs": [],
            "name": "coll",
            "outputs": [
                {
                    "internalType": "contract INFT",
                    "name": "",
                    "type": "address"
                }
            ],
            "stateMutability": "view",
            "type": "function"
        },
        {
            "inputs": [
                {
                    "internalType": "string",
                    "name": "",
                    "type": "string"
                }
            ],
            "name": "metadataUsed",
            "outputs": [
                {
                    "internalType": "bool",
                    "name": "",
                    "type": "bool"
                }
            ],
            "stateMutability": "view",
            "type": "function"
        },
        {
            "inputs": [
                {
                    "internalType": "uint256",
                    "name": "nonce",
                    "type": "uint256"
                },
                {
                    "internalType": "address",
                    "name": "collection",
                    "type": "address"
                },
                {
                    "internalType": "address",
                    "name": "receiver",
                    "type": "address"
                },
                {
                    "internalType": "string",
                    "name": "tokenURI",
                    "type": "string"
                },
                {
                    "internalType": "bytes",
                    "name": "signature",
                    "type": "bytes"
                }
            ],
            "name": "mint",
            "outputs": [],
            "stateMutability": "nonpayable",
            "type": "function"
        },
        {
            "inputs": [
                {
                    "internalType": "address",
                    "name": "",
                    "type": "address"
                },
                {
                    "internalType": "uint256",
                    "name": "",
                    "type": "uint256"
                }
            ],
            "name": "processedNonces",
            "outputs": [
                {
                    "internalType": "bool",
                    "name": "",
                    "type": "bool"
                }
            ],
            "stateMutability": "view",
            "type": "function"
        }
    ],
    "bytecode": "608060405234801561001057600080fd5b506107f7806100206000396000f3fe608060405234801561001057600080fd5b506004361061004c5760003560e01c80637cc70240146100515780638ed0a4ce14610091578063a1067a04146100a6578063e89355c2146100d4575b600080fd5b61007c61005f3660046104cf565b600060208181529281526040808220909352908152205460ff1681565b60405190151581526020015b60405180910390f35b6100a461009f36600461059c565b6100ff565b005b61007c6100b436600461065d565b805160208183018101805160018252928201919093012091525460ff1681565b6002546100e7906001600160a01b031681565b6040516001600160a01b039091168152602001610088565b600061017b3387868a60405160200161011b94939291906106ca565b60408051601f1981840301815282825280516020918201207f19457468657265756d205369676e6564204d6573736167653a0a33320000000084830152603c8085019190915282518085039091018152605c909301909152815191012090565b905060018460405161018d9190610717565b9081526040519081900360200190205460ff16156101f25760405162461bcd60e51b815260206004820152601d60248201527f54686973206d6574616461746120616c7265616479206d696e74696e6700000060448201526064015b60405180910390fd5b846001600160a01b031661023c8285858080601f01602080910402602001604051908101604052809392919081815260200183838082843760009201919091525061040592505050565b6001600160a01b0316146102845760405162461bcd60e51b815260206004820152600f60248201526e77726f6e67207369676e617475726560881b60448201526064016101e9565b6001600160a01b0385166000908152602081815260408083208a845290915290205460ff16156102f65760405162461bcd60e51b815260206004820152601a60248201527f7472616e7366657220616c72656164792070726f63657373656400000000000060448201526064016101e9565b6001600160a01b038086166000908152602081815260408083208b845290915290819020805460ff19166001179055600280549289166001600160a01b03199093168317905551633ab2af8560e21b815263eacabe149061035d908890889060040161075f565b600060405180830381600087803b15801561037757600080fd5b505af115801561038b573d6000803e3d6000fd5b50505050600180856040516103a09190610717565b908152604051908190036020018120805492151560ff19909316929092179091557f175c85d466c509acbdb41f4f884b6f9df5f788cc1ed815daaa3f7376d615e3f4906103f490339088908a908990610783565b60405180910390a150505050505050565b60008060008061041485610484565b6040805160008152602081018083528b905260ff8516918101919091526060810183905260808101829052929550909350915060019060a0016020604051602081039080840390855afa15801561046f573d6000803e3d6000fd5b5050604051601f190151979650505050505050565b6000806000835160411461049757600080fd5b5050506020810151604082015160609092015160001a92909190565b80356001600160a01b03811681146104ca57600080fd5b919050565b600080604083850312156104e257600080fd5b6104eb836104b3565b946020939093013593505050565b634e487b7160e01b600052604160045260246000fd5b600082601f83011261052057600080fd5b813567ffffffffffffffff8082111561053b5761053b6104f9565b604051601f8301601f19908116603f01168101908282118183101715610563576105636104f9565b8160405283815286602085880101111561057c57600080fd5b836020870160208301376000602085830101528094505050505092915050565b60008060008060008060a087890312156105b557600080fd5b863595506105c5602088016104b3565b94506105d3604088016104b3565b9350606087013567ffffffffffffffff808211156105f057600080fd5b6105fc8a838b0161050f565b9450608089013591508082111561061257600080fd5b818901915089601f83011261062657600080fd5b81358181111561063557600080fd5b8a602082850101111561064757600080fd5b6020830194508093505050509295509295509295565b60006020828403121561066f57600080fd5b813567ffffffffffffffff81111561068657600080fd5b6106928482850161050f565b949350505050565b60005b838110156106b557818101518382015260200161069d565b838111156106c4576000848401525b50505050565b60006bffffffffffffffffffffffff19808760601b168352808660601b16601484015250835161070181602885016020880161069a565b6028920191820192909252604801949350505050565b6000825161072981846020870161069a565b9190910192915050565b6000815180845261074b81602086016020860161069a565b601f01601f19169290920160200192915050565b6001600160a01b038316815260406020820181905260009061069290830184610733565b6001600160a01b0385811682528481166020830152831660408201526080606082018190526000906107b790830184610733565b969550505050505056fea2646970667358221220f14b6a1eafae6f132c7d3e2de4f0dee71b17d90653fe20a53ca6bc3c2d498e3964736f6c634300080d0033",
    "sourcePath": "/Users/kjwook/Desktop/grayworld/bridge/backend/contracts/EthBridgeService.sol",
    "compiler": {
        "name": "solc",
        "version": "0.8.13+commit.abaa5c0e"
    },
    "functionHashes": {
        "coll()": "e89355c2",
        "metadataUsed(string)": "a1067a04",
        "mint(uint256,address,address,string,bytes)": "8ed0a4ce",
        "processedNonces(address,uint256)": "7cc70240"
    },
    "gasEstimates": {
        "creation": {
            "codeDepositCost": "407800",
            "executionCost": "443",
            "totalCost": "408243"
        },
        "external": {
            "coll()": "2381",
            "metadataUsed(string)": "infinite",
            "mint(uint256,address,address,string,bytes)": "infinite",
            "processedNonces(address,uint256)": "2585"
        },
        "internal": {
            "prefixed(bytes32)": "infinite",
            "recoverSigner(bytes32,bytes memory)": "infinite",
            "splitSignature(bytes memory)": "infinite"
        }
    }
}