{
    "contractName": "HederaBridgeService",
    "abi": [
        {
            "inputs": [],
            "stateMutability": "nonpayable",
            "type": "constructor"
        },
        {
            "inputs": [
                {
                    "internalType": "address",
                    "name": "owner",
                    "type": "address"
                }
            ],
            "name": "getAssets",
            "outputs": [
                {
                    "components": [
                        {
                            "internalType": "address",
                            "name": "tokenAddress",
                            "type": "address"
                        },
                        {
                            "internalType": "int64",
                            "name": "tokenId",
                            "type": "int64"
                        },
                        {
                            "internalType": "address",
                            "name": "owner",
                            "type": "address"
                        }
                    ],
                    "internalType": "struct HederaBridgeService.TokenInfo[]",
                    "name": "",
                    "type": "tuple[]"
                }
            ],
            "stateMutability": "view",
            "type": "function"
        },
        {
            "inputs": [],
            "name": "index",
            "outputs": [
                {
                    "internalType": "uint256",
                    "name": "",
                    "type": "uint256"
                }
            ],
            "stateMutability": "view",
            "type": "function"
        },
        {
            "inputs": [
                {
                    "internalType": "address",
                    "name": "tokenAddress",
                    "type": "address"
                },
                {
                    "internalType": "int64",
                    "name": "serialNumber",
                    "type": "int64"
                }
            ],
            "name": "lock",
            "outputs": [
                {
                    "internalType": "int256",
                    "name": "response",
                    "type": "int256"
                }
            ],
            "stateMutability": "payable",
            "type": "function"
        },
        {
            "inputs": [
                {
                    "internalType": "uint256",
                    "name": "",
                    "type": "uint256"
                }
            ],
            "name": "tokenOwner",
            "outputs": [
                {
                    "internalType": "address",
                    "name": "tokenAddress",
                    "type": "address"
                },
                {
                    "internalType": "int64",
                    "name": "tokenId",
                    "type": "int64"
                },
                {
                    "internalType": "address",
                    "name": "owner",
                    "type": "address"
                }
            ],
            "stateMutability": "view",
            "type": "function"
        },
        {
            "inputs": [
                {
                    "internalType": "address",
                    "name": "tokenAddress",
                    "type": "address"
                },
                {
                    "internalType": "int64",
                    "name": "serialNumber",
                    "type": "int64"
                }
            ],
            "name": "withdraw",
            "outputs": [
                {
                    "internalType": "int256",
                    "name": "response",
                    "type": "int256"
                }
            ],
            "stateMutability": "nonpayable",
            "type": "function"
        }
    ],
    "bytecode": "608060405234801561001057600080fd5b5060008055610791806100246000396000f3fe60806040526004361061004a5760003560e01c806301d8de251461004f5780631caaa487146100755780632986c0e5146100ee578063742978da1461010457806392c0299114610131575b600080fd5b61006261005d3660046105aa565b610151565b6040519081526020015b60405180910390f35b34801561008157600080fd5b506100c16100903660046105e7565b600160208190526000918252604090912080549101546001600160a01b0380831692600160a01b900460070b911683565b604080516001600160a01b03948516815260079390930b602084015292169181019190915260600161006c565b3480156100fa57600080fd5b5061006260005481565b34801561011057600080fd5b5061012461011f366004610600565b610248565b60405161006c9190610622565b34801561013d57600080fd5b5061006261014c3660046105aa565b610369565b600080610160843330866104a6565b9050601681146101a95760405162461bcd60e51b815260206004820152600f60248201526e151c985b9cd9995c8811985a5b1959608a1b60448201526064015b60405180910390fd5b604080516060810182526001600160a01b038087168252600786900b60208084019182523384860190815260008054815260019283905295862094518554935167ffffffffffffffff16600160a01b026001600160e01b031990941690851617929092178455905192018054929091166001600160a01b03199290921691909117905580549080610239836106a1565b90915550600195945050505050565b60606000805467ffffffffffffffff811115610266576102666106ba565b6040519080825280602002602001820160405280156102b157816020015b60408051606081018252600080825260208083018290529282015282526000199092019101816102845790505b5090506000805b600054811015610360576000818152600160208190526040909120908101546001600160a01b0380881691160361034d576040805160608101825282546001600160a01b038082168352600160a01b90910460070b6020830152600184015416918101919091528451859085908110610333576103336106d0565b60200260200101819052508280610349906106a1565b9350505b5080610358816106a1565b9150506102b8565b50909392505050565b600080610378843033866104a6565b9050601681146103bc5760405162461bcd60e51b815260206004820152600f60248201526e151c985b9cd9995c8811985a5b1959608a1b60448201526064016101a0565b60005b600054811015610496576000818152600160208190526040909120908101546001600160a01b03163314801561040357508054600786810b600160a01b909204900b145b156104835760408051606081018252600080825260208083018281528385018381528784526001928390529490922092518354925167ffffffffffffffff16600160a01b026001600160e01b03199093166001600160a01b03918216179290921783559251919092018054919092166001600160a01b0319919091161790555b508061048e816106a1565b9150506103bf565b50600080549080610239836106e6565b604080516001600160a01b038681166024830152858116604483015284166064820152600783900b6084808301919091528251808303909101815260a490910182526020810180516001600160e01b0316635cfc901160e01b1790529051600091829182916101679161051991906106fd565b6000604051808303816000865af19150503d8060008114610556576040519150601f19603f3d011682016040523d82523d6000602084013e61055b565b606091505b50915091508161056c576015610580565b808060200190518101906105809190610738565b60030b979650505050505050565b80356001600160a01b03811681146105a557600080fd5b919050565b600080604083850312156105bd57600080fd5b6105c68361058e565b915060208301358060070b81146105dc57600080fd5b809150509250929050565b6000602082840312156105f957600080fd5b5035919050565b60006020828403121561061257600080fd5b61061b8261058e565b9392505050565b602080825282518282018190526000919060409081850190868401855b8281101561067e57815180516001600160a01b0390811686528782015160070b888701529086015116858501526060909301929085019060010161063f565b5091979650505050505050565b634e487b7160e01b600052601160045260246000fd5b6000600182016106b3576106b361068b565b5060010190565b634e487b7160e01b600052604160045260246000fd5b634e487b7160e01b600052603260045260246000fd5b6000816106f5576106f561068b565b506000190190565b6000825160005b8181101561071e5760208186018101518583015201610704565b8181111561072d576000828501525b509190910192915050565b60006020828403121561074a57600080fd5b81518060030b811461061b57600080fdfea2646970667358221220f5db7639ece454b4ccca3a9cc57f0cb17ca3a6c271b9f207eec5c998edbae33964736f6c634300080d0033",
    "sourcePath": "/Users/kjwook/Desktop/grayworld/bridge/backend/contracts/HederaBridgeService.sol",
    "compiler": {
        "name": "solc",
        "version": "0.8.13+commit.abaa5c0e"
    },
    "functionHashes": {
        "getAssets(address)": "742978da",
        "index()": "2986c0e5",
        "lock(address,int64)": "01d8de25",
        "tokenOwner(uint256)": "1caaa487",
        "withdraw(address,int64)": "92c02991"
    },
    "gasEstimates": {
        "creation": {
            "codeDepositCost": "387400",
            "executionCost": "5430",
            "totalCost": "392830"
        },
        "external": {
            "getAssets(address)": "infinite",
            "index()": "2306",
            "lock(address,int64)": "infinite",
            "tokenOwner(uint256)": "4700",
            "withdraw(address,int64)": "infinite"
        }
    }
}