{
    "contractName": "ETHBridge",
    "abi": [
        {
            "anonymous": false,
            "inputs": [
                {
                    "indexed": false,
                    "internalType": "address",
                    "name": "from",
                    "type": "address"
                },
                {
                    "indexed": false,
                    "internalType": "address",
                    "name": "to",
                    "type": "address"
                },
                {
                    "indexed": false,
                    "internalType": "address",
                    "name": "collection",
                    "type": "address"
                },
                {
                    "indexed": false,
                    "internalType": "string",
                    "name": "tokenURI",
                    "type": "string"
                }
            ],
            "name": "MintETH",
            "type": "event"
        },
        {
            "inputs": [],
            "name": "coll",
            "outputs": [
                {
                    "internalType": "contract INFT",
                    "name": "",
                    "type": "address"
                }
            ],
            "stateMutability": "view",
            "type": "function"
        },
        {
            "inputs": [
                {
                    "internalType": "address",
                    "name": "collection",
                    "type": "address"
                },
                {
                    "internalType": "address",
                    "name": "receiver",
                    "type": "address"
                },
                {
                    "internalType": "string",
                    "name": "tokenURI",
                    "type": "string"
                }
            ],
            "name": "mint",
            "outputs": [],
            "stateMutability": "nonpayable",
            "type": "function"
        }
    ],
    "bytecode": "60a060405273d9145cce52d386f254917e481eb44e9943f39138608090815261002c90600090600161003f565b5034801561003957600080fd5b506100b9565b828054828255906000526020600020908101928215610094579160200282015b8281111561009457825182546001600160a01b0319166001600160a01b0390911617825560209092019160019091019061005f565b506100a09291506100a4565b5090565b5b808211156100a057600081556001016100a5565b610325806100c86000396000f3fe608060405234801561001057600080fd5b50600436106100365760003560e01c8063221375a61461003b578063e89355c214610050575b600080fd5b61004e610049366004610166565b61007f565b005b600154610063906001600160a01b031681565b6040516001600160a01b03909116815260200160405180910390f35b600180546001600160a01b0319166001600160a01b038516908117909155604051633ab2af8560e21b815263eacabe14906100c09085908590600401610285565b600060405180830381600087803b1580156100da57600080fd5b505af11580156100ee573d6000803e3d6000fd5b505050507f175c85d466c509acbdb41f4f884b6f9df5f788cc1ed815daaa3f7376d615e3f43383858460405161012794939291906102b1565b60405180910390a1505050565b80356001600160a01b038116811461014b57600080fd5b919050565b634e487b7160e01b600052604160045260246000fd5b60008060006060848603121561017b57600080fd5b61018484610134565b925061019260208501610134565b9150604084013567ffffffffffffffff808211156101af57600080fd5b818601915086601f8301126101c357600080fd5b8135818111156101d5576101d5610150565b604051601f8201601f19908116603f011681019083821181831017156101fd576101fd610150565b8160405282815289602084870101111561021657600080fd5b8260208601602083013760006020848301015280955050505050509250925092565b6000815180845260005b8181101561025e57602081850181015186830182015201610242565b81811115610270576000602083870101525b50601f01601f19169290920160200192915050565b6001600160a01b03831681526040602082018190526000906102a990830184610238565b949350505050565b6001600160a01b0385811682528481166020830152831660408201526080606082018190526000906102e590830184610238565b969550505050505056fea2646970667358221220af9b3c31867944e18ff0094d9c8385f0549e3915c4165b7e914453ddf7852fff64736f6c634300080d0033",
    "sourcePath": "/Users/kjwook/Desktop/grayworld/bridge/backend/contracts/eth/EthBridge.sol",
    "compiler": {
        "name": "solc",
        "version": "0.8.13+commit.abaa5c0e"
    },
    "functionHashes": {
        "coll()": "e89355c2",
        "mint(address,address,string)": "221375a6"
    },
    "gasEstimates": {
        "creation": {
            "codeDepositCost": "161000",
            "executionCost": "infinite",
            "totalCost": "infinite"
        },
        "external": {
            "coll()": "2325",
            "mint(address,address,string)": "infinite"
        }
    }
}