{
    "contractName": "GrayFreshmanCollection",
    "abi": [
        {
            "inputs": [
                {
                    "internalType": "string",
                    "name": "name",
                    "type": "string"
                },
                {
                    "internalType": "string",
                    "name": "symbol",
                    "type": "string"
                }
            ],
            "stateMutability": "nonpayable",
            "type": "constructor"
        },
        {
            "anonymous": false,
            "inputs": [
                {
                    "indexed": true,
                    "internalType": "address",
                    "name": "owner",
                    "type": "address"
                },
                {
                    "indexed": true,
                    "internalType": "address",
                    "name": "approved",
                    "type": "address"
                },
                {
                    "indexed": true,
                    "internalType": "uint256",
                    "name": "tokenId",
                    "type": "uint256"
                }
            ],
            "name": "Approval",
            "type": "event"
        },
        {
            "anonymous": false,
            "inputs": [
                {
                    "indexed": true,
                    "internalType": "address",
                    "name": "owner",
                    "type": "address"
                },
                {
                    "indexed": true,
                    "internalType": "address",
                    "name": "operator",
                    "type": "address"
                },
                {
                    "indexed": false,
                    "internalType": "bool",
                    "name": "approved",
                    "type": "bool"
                }
            ],
            "name": "ApprovalForAll",
            "type": "event"
        },
        {
            "anonymous": false,
            "inputs": [
                {
                    "indexed": true,
                    "internalType": "address",
                    "name": "previousOwner",
                    "type": "address"
                },
                {
                    "indexed": true,
                    "internalType": "address",
                    "name": "newOwner",
                    "type": "address"
                }
            ],
            "name": "OwnershipTransferred",
            "type": "event"
        },
        {
            "anonymous": false,
            "inputs": [
                {
                    "indexed": true,
                    "internalType": "address",
                    "name": "from",
                    "type": "address"
                },
                {
                    "indexed": true,
                    "internalType": "address",
                    "name": "to",
                    "type": "address"
                },
                {
                    "indexed": true,
                    "internalType": "uint256",
                    "name": "tokenId",
                    "type": "uint256"
                }
            ],
            "name": "Transfer",
            "type": "event"
        },
        {
            "inputs": [],
            "name": "admin",
            "outputs": [
                {
                    "internalType": "address",
                    "name": "",
                    "type": "address"
                }
            ],
            "stateMutability": "view",
            "type": "function"
        },
        {
            "inputs": [
                {
                    "internalType": "address",
                    "name": "to",
                    "type": "address"
                },
                {
                    "internalType": "uint256",
                    "name": "tokenId",
                    "type": "uint256"
                }
            ],
            "name": "approve",
            "outputs": [],
            "stateMutability": "nonpayable",
            "type": "function"
        },
        {
            "inputs": [
                {
                    "internalType": "address",
                    "name": "owner",
                    "type": "address"
                }
            ],
            "name": "balanceOf",
            "outputs": [
                {
                    "internalType": "uint256",
                    "name": "",
                    "type": "uint256"
                }
            ],
            "stateMutability": "view",
            "type": "function"
        },
        {
            "inputs": [
                {
                    "internalType": "uint256",
                    "name": "tokenId",
                    "type": "uint256"
                }
            ],
            "name": "getApproved",
            "outputs": [
                {
                    "internalType": "address",
                    "name": "",
                    "type": "address"
                }
            ],
            "stateMutability": "view",
            "type": "function"
        },
        {
            "inputs": [
                {
                    "internalType": "address",
                    "name": "owner",
                    "type": "address"
                },
                {
                    "internalType": "address",
                    "name": "operator",
                    "type": "address"
                }
            ],
            "name": "isApprovedForAll",
            "outputs": [
                {
                    "internalType": "bool",
                    "name": "",
                    "type": "bool"
                }
            ],
            "stateMutability": "view",
            "type": "function"
        },
        {
            "inputs": [
                {
                    "internalType": "address",
                    "name": "recipient",
                    "type": "address"
                },
                {
                    "internalType": "string",
                    "name": "tokenURI",
                    "type": "string"
                }
            ],
            "name": "mintNFT",
            "outputs": [
                {
                    "internalType": "uint256",
                    "name": "",
                    "type": "uint256"
                }
            ],
            "stateMutability": "nonpayable",
            "type": "function"
        },
        {
            "inputs": [],
            "name": "name",
            "outputs": [
                {
                    "internalType": "string",
                    "name": "",
                    "type": "string"
                }
            ],
            "stateMutability": "view",
            "type": "function"
        },
        {
            "inputs": [],
            "name": "owner",
            "outputs": [
                {
                    "internalType": "address",
                    "name": "",
                    "type": "address"
                }
            ],
            "stateMutability": "view",
            "type": "function"
        },
        {
            "inputs": [
                {
                    "internalType": "uint256",
                    "name": "tokenId",
                    "type": "uint256"
                }
            ],
            "name": "ownerOf",
            "outputs": [
                {
                    "internalType": "address",
                    "name": "",
                    "type": "address"
                }
            ],
            "stateMutability": "view",
            "type": "function"
        },
        {
            "inputs": [],
            "name": "renounceOwnership",
            "outputs": [],
            "stateMutability": "nonpayable",
            "type": "function"
        },
        {
            "inputs": [
                {
                    "internalType": "address",
                    "name": "from",
                    "type": "address"
                },
                {
                    "internalType": "address",
                    "name": "to",
                    "type": "address"
                },
                {
                    "internalType": "uint256",
                    "name": "tokenId",
                    "type": "uint256"
                }
            ],
            "name": "safeTransferFrom",
            "outputs": [],
            "stateMutability": "nonpayable",
            "type": "function"
        },
        {
            "inputs": [
                {
                    "internalType": "address",
                    "name": "from",
                    "type": "address"
                },
                {
                    "internalType": "address",
                    "name": "to",
                    "type": "address"
                },
                {
                    "internalType": "uint256",
                    "name": "tokenId",
                    "type": "uint256"
                },
                {
                    "internalType": "bytes",
                    "name": "_data",
                    "type": "bytes"
                }
            ],
            "name": "safeTransferFrom",
            "outputs": [],
            "stateMutability": "nonpayable",
            "type": "function"
        },
        {
            "inputs": [
                {
                    "internalType": "address",
                    "name": "operator",
                    "type": "address"
                },
                {
                    "internalType": "bool",
                    "name": "approved",
                    "type": "bool"
                }
            ],
            "name": "setApprovalForAll",
            "outputs": [],
            "stateMutability": "nonpayable",
            "type": "function"
        },
        {
            "inputs": [
                {
                    "internalType": "bytes4",
                    "name": "interfaceId",
                    "type": "bytes4"
                }
            ],
            "name": "supportsInterface",
            "outputs": [
                {
                    "internalType": "bool",
                    "name": "",
                    "type": "bool"
                }
            ],
            "stateMutability": "view",
            "type": "function"
        },
        {
            "inputs": [],
            "name": "symbol",
            "outputs": [
                {
                    "internalType": "string",
                    "name": "",
                    "type": "string"
                }
            ],
            "stateMutability": "view",
            "type": "function"
        },
        {
            "inputs": [
                {
                    "internalType": "uint256",
                    "name": "tokenId",
                    "type": "uint256"
                }
            ],
            "name": "tokenURI",
            "outputs": [
                {
                    "internalType": "string",
                    "name": "",
                    "type": "string"
                }
            ],
            "stateMutability": "view",
            "type": "function"
        },
        {
            "inputs": [
                {
                    "internalType": "address",
                    "name": "from",
                    "type": "address"
                },
                {
                    "internalType": "address",
                    "name": "to",
                    "type": "address"
                },
                {
                    "internalType": "uint256",
                    "name": "tokenId",
                    "type": "uint256"
                }
            ],
            "name": "transferFrom",
            "outputs": [],
            "stateMutability": "nonpayable",
            "type": "function"
        },
        {
            "inputs": [
                {
                    "internalType": "address",
                    "name": "newOwner",
                    "type": "address"
                }
            ],
            "name": "transferOwnership",
            "outputs": [],
            "stateMutability": "nonpayable",
            "type": "function"
        },
        {
            "inputs": [
                {
                    "internalType": "address",
                    "name": "newAdmin",
                    "type": "address"
                }
            ],
            "name": "updateAdmin",
            "outputs": [],
            "stateMutability": "nonpayable",
            "type": "function"
        }
    ],
    "bytecode": "60806040523480156200001157600080fd5b5060405162001cbc38038062001cbc833981016040819052620000349162000263565b8151829082906200004d906000906020850190620000f0565b50805162000063906001906020840190620000f0565b505050620000806200007a6200009a60201b60201c565b6200009e565b5050600980546001600160a01b0319163317905562000309565b3390565b600780546001600160a01b038381166001600160a01b0319831681179093556040519116919082907f8be0079c531659141344cd1fd0a4f28419497f9722a3daafe3b4186f6b6457e090600090a35050565b828054620000fe90620002cd565b90600052602060002090601f0160209004810192826200012257600085556200016d565b82601f106200013d57805160ff19168380011785556200016d565b828001600101855582156200016d579182015b828111156200016d57825182559160200191906001019062000150565b506200017b9291506200017f565b5090565b5b808211156200017b576000815560010162000180565b634e487b7160e01b600052604160045260246000fd5b600082601f830112620001be57600080fd5b81516001600160401b0380821115620001db57620001db62000196565b604051601f8301601f19908116603f0116810190828211818310171562000206576200020662000196565b816040528381526020925086838588010111156200022357600080fd5b600091505b8382101562000247578582018301518183018401529082019062000228565b83821115620002595760008385830101525b9695505050505050565b600080604083850312156200027757600080fd5b82516001600160401b03808211156200028f57600080fd5b6200029d86838701620001ac565b93506020850151915080821115620002b457600080fd5b50620002c385828601620001ac565b9150509250929050565b600181811c90821680620002e257607f821691505b6020821081036200030357634e487b7160e01b600052602260045260246000fd5b50919050565b6119a380620003196000396000f3fe608060405234801561001057600080fd5b50600436106101215760003560e01c80638da5cb5b116100ad578063e2f273bd11610071578063e2f273bd14610257578063e985e9c51461026a578063eacabe14146102a6578063f2fde38b146102b9578063f851a440146102cc57600080fd5b80638da5cb5b1461020557806395d89b4114610216578063a22cb4651461021e578063b88d4fde14610231578063c87b56dd1461024457600080fd5b806323b872dd116100f457806323b872dd146101a357806342842e0e146101b65780636352211e146101c957806370a08231146101dc578063715018a6146101fd57600080fd5b806301ffc9a71461012657806306fdde031461014e578063081812fc14610163578063095ea7b31461018e575b600080fd5b61013961013436600461143e565b6102df565b60405190151581526020015b60405180910390f35b610156610331565b60405161014591906114b3565b6101766101713660046114c6565b6103c3565b6040516001600160a01b039091168152602001610145565b6101a161019c3660046114fb565b610450565b005b6101a16101b1366004611525565b610565565b6101a16101c4366004611525565b610596565b6101766101d73660046114c6565b6105b1565b6101ef6101ea366004611561565b610628565b604051908152602001610145565b6101a16106af565b6007546001600160a01b0316610176565b610156610715565b6101a161022c36600461157c565b610724565b6101a161023f366004611644565b610733565b6101566102523660046114c6565b61076b565b6101a1610265366004611561565b6108e1565b6101396102783660046116c0565b6001600160a01b03918216600090815260056020908152604080832093909416825291909152205460ff1690565b6101ef6102b43660046116f3565b61094a565b6101a16102c7366004611561565b6109ca565b600954610176906001600160a01b031681565b60006001600160e01b031982166380ac58cd60e01b148061031057506001600160e01b03198216635b5e139f60e01b145b8061032b57506301ffc9a760e01b6001600160e01b03198316145b92915050565b60606000805461034090611755565b80601f016020809104026020016040519081016040528092919081815260200182805461036c90611755565b80156103b95780601f1061038e576101008083540402835291602001916103b9565b820191906000526020600020905b81548152906001019060200180831161039c57829003601f168201915b5050505050905090565b60006103ce82610a95565b6104345760405162461bcd60e51b815260206004820152602c60248201527f4552433732313a20617070726f76656420717565727920666f72206e6f6e657860448201526b34b9ba32b73a103a37b5b2b760a11b60648201526084015b60405180910390fd5b506000908152600460205260409020546001600160a01b031690565b600061045b826105b1565b9050806001600160a01b0316836001600160a01b0316036104c85760405162461bcd60e51b815260206004820152602160248201527f4552433732313a20617070726f76616c20746f2063757272656e74206f776e656044820152603960f91b606482015260840161042b565b336001600160a01b03821614806104e457506104e48133610278565b6105565760405162461bcd60e51b815260206004820152603860248201527f4552433732313a20617070726f76652063616c6c6572206973206e6f74206f7760448201527f6e6572206e6f7220617070726f76656420666f7220616c6c0000000000000000606482015260840161042b565b6105608383610ab2565b505050565b61056f3382610b20565b61058b5760405162461bcd60e51b815260040161042b9061178f565b610560838383610c09565b61056083838360405180602001604052806000815250610733565b6000818152600260205260408120546001600160a01b03168061032b5760405162461bcd60e51b815260206004820152602960248201527f4552433732313a206f776e657220717565727920666f72206e6f6e657869737460448201526832b73a103a37b5b2b760b91b606482015260840161042b565b60006001600160a01b0382166106935760405162461bcd60e51b815260206004820152602a60248201527f4552433732313a2062616c616e636520717565727920666f7220746865207a65604482015269726f206164647265737360b01b606482015260840161042b565b506001600160a01b031660009081526003602052604090205490565b6007546001600160a01b031633146107095760405162461bcd60e51b815260206004820181905260248201527f4f776e61626c653a2063616c6c6572206973206e6f7420746865206f776e6572604482015260640161042b565b6107136000610da5565b565b60606001805461034090611755565b61072f338383610df7565b5050565b61073d3383610b20565b6107595760405162461bcd60e51b815260040161042b9061178f565b61076584848484610ec5565b50505050565b606061077682610a95565b6107dc5760405162461bcd60e51b815260206004820152603160248201527f45524337323155524953746f726167653a2055524920717565727920666f72206044820152703737b732bc34b9ba32b73a103a37b5b2b760791b606482015260840161042b565b600082815260066020526040812080546107f590611755565b80601f016020809104026020016040519081016040528092919081815260200182805461082190611755565b801561086e5780601f106108435761010080835404028352916020019161086e565b820191906000526020600020905b81548152906001019060200180831161085157829003601f168201915b50505050509050600061088c60408051602081019091526000815290565b9050805160000361089e575092915050565b8151156108d05780826040516020016108b89291906117e0565b60405160208183030381529060405292505050919050565b6108d984610ef8565b949350505050565b6009546001600160a01b031633146109285760405162461bcd60e51b815260206004820152600a60248201526937b7363c9030b236b4b760b11b604482015260640161042b565b600980546001600160a01b0319166001600160a01b0392909216919091179055565b6009546000906001600160a01b031633146109945760405162461bcd60e51b815260206004820152600a60248201526937b7363c9030b236b4b760b11b604482015260640161042b565b6109a2600880546001019055565b60006109ad60085490565b90506109b98482610fcf565b6109c38184611102565b9392505050565b6007546001600160a01b03163314610a245760405162461bcd60e51b815260206004820181905260248201527f4f776e61626c653a2063616c6c6572206973206e6f7420746865206f776e6572604482015260640161042b565b6001600160a01b038116610a895760405162461bcd60e51b815260206004820152602660248201527f4f776e61626c653a206e6577206f776e657220697320746865207a65726f206160448201526564647265737360d01b606482015260840161042b565b610a9281610da5565b50565b6000908152600260205260409020546001600160a01b0316151590565b600081815260046020526040902080546001600160a01b0319166001600160a01b0384169081179091558190610ae7826105b1565b6001600160a01b03167f8c5be1e5ebec7d5bd14f71427d1e84f3dd0314c0f7b2291e5b200ac8c7c3b92560405160405180910390a45050565b6000610b2b82610a95565b610b8c5760405162461bcd60e51b815260206004820152602c60248201527f4552433732313a206f70657261746f7220717565727920666f72206e6f6e657860448201526b34b9ba32b73a103a37b5b2b760a11b606482015260840161042b565b6000610b97836105b1565b9050806001600160a01b0316846001600160a01b03161480610bde57506001600160a01b0380821660009081526005602090815260408083209388168352929052205460ff165b806108d95750836001600160a01b0316610bf7846103c3565b6001600160a01b031614949350505050565b826001600160a01b0316610c1c826105b1565b6001600160a01b031614610c805760405162461bcd60e51b815260206004820152602560248201527f4552433732313a207472616e736665722066726f6d20696e636f72726563742060448201526437bbb732b960d91b606482015260840161042b565b6001600160a01b038216610ce25760405162461bcd60e51b8152602060048201526024808201527f4552433732313a207472616e7366657220746f20746865207a65726f206164646044820152637265737360e01b606482015260840161042b565b610ced600082610ab2565b6001600160a01b0383166000908152600360205260408120805460019290610d16908490611825565b90915550506001600160a01b0382166000908152600360205260408120805460019290610d4490849061183c565b909155505060008181526002602052604080822080546001600160a01b0319166001600160a01b0386811691821790925591518493918716917fddf252ad1be2c89b69c2b068fc378daa952ba7f163c4a11628f55a4df523b3ef91a4505050565b600780546001600160a01b038381166001600160a01b0319831681179093556040519116919082907f8be0079c531659141344cd1fd0a4f28419497f9722a3daafe3b4186f6b6457e090600090a35050565b816001600160a01b0316836001600160a01b031603610e585760405162461bcd60e51b815260206004820152601960248201527f4552433732313a20617070726f766520746f2063616c6c657200000000000000604482015260640161042b565b6001600160a01b03838116600081815260056020908152604080832094871680845294825291829020805460ff191686151590811790915591519182527f17307eab39ab6107e8899845ad3d59bd9653f200f220920489ca2b5937696c31910160405180910390a3505050565b610ed0848484610c09565b610edc8484848461118d565b6107655760405162461bcd60e51b815260040161042b90611854565b6060610f0382610a95565b610f675760405162461bcd60e51b815260206004820152602f60248201527f4552433732314d657461646174613a2055524920717565727920666f72206e6f60448201526e3732bc34b9ba32b73a103a37b5b2b760891b606482015260840161042b565b6000610f7e60408051602081019091526000815290565b90506000815111610f9e57604051806020016040528060008152506109c3565b80610fa88461128e565b604051602001610fb99291906117e0565b6040516020818303038152906040529392505050565b6001600160a01b0382166110255760405162461bcd60e51b815260206004820181905260248201527f4552433732313a206d696e7420746f20746865207a65726f2061646472657373604482015260640161042b565b61102e81610a95565b1561107b5760405162461bcd60e51b815260206004820152601c60248201527f4552433732313a20746f6b656e20616c7265616479206d696e74656400000000604482015260640161042b565b6001600160a01b03821660009081526003602052604081208054600192906110a490849061183c565b909155505060008181526002602052604080822080546001600160a01b0319166001600160a01b03861690811790915590518392907fddf252ad1be2c89b69c2b068fc378daa952ba7f163c4a11628f55a4df523b3ef908290a45050565b61110b82610a95565b61116e5760405162461bcd60e51b815260206004820152602e60248201527f45524337323155524953746f726167653a2055524920736574206f66206e6f6e60448201526d32bc34b9ba32b73a103a37b5b2b760911b606482015260840161042b565b600082815260066020908152604090912082516105609284019061138f565b60006001600160a01b0384163b1561128357604051630a85bd0160e11b81526001600160a01b0385169063150b7a02906111d19033908990889088906004016118a6565b6020604051808303816000875af192505050801561120c575060408051601f3d908101601f19168201909252611209918101906118e3565b60015b611269573d80801561123a576040519150601f19603f3d011682016040523d82523d6000602084013e61123f565b606091505b5080516000036112615760405162461bcd60e51b815260040161042b90611854565b805181602001fd5b6001600160e01b031916630a85bd0160e11b1490506108d9565b506001949350505050565b6060816000036112b55750506040805180820190915260018152600360fc1b602082015290565b8160005b81156112df57806112c981611900565b91506112d89050600a8361192f565b91506112b9565b60008167ffffffffffffffff8111156112fa576112fa6115b8565b6040519080825280601f01601f191660200182016040528015611324576020820181803683370190505b5090505b84156108d957611339600183611825565b9150611346600a86611943565b61135190603061183c565b60f81b81838151811061136657611366611957565b60200101906001600160f81b031916908160001a905350611388600a8661192f565b9450611328565b82805461139b90611755565b90600052602060002090601f0160209004810192826113bd5760008555611403565b82601f106113d657805160ff1916838001178555611403565b82800160010185558215611403579182015b828111156114035782518255916020019190600101906113e8565b5061140f929150611413565b5090565b5b8082111561140f5760008155600101611414565b6001600160e01b031981168114610a9257600080fd5b60006020828403121561145057600080fd5b81356109c381611428565b60005b8381101561147657818101518382015260200161145e565b838111156107655750506000910152565b6000815180845261149f81602086016020860161145b565b601f01601f19169290920160200192915050565b6020815260006109c36020830184611487565b6000602082840312156114d857600080fd5b5035919050565b80356001600160a01b03811681146114f657600080fd5b919050565b6000806040838503121561150e57600080fd5b611517836114df565b946020939093013593505050565b60008060006060848603121561153a57600080fd5b611543846114df565b9250611551602085016114df565b9150604084013590509250925092565b60006020828403121561157357600080fd5b6109c3826114df565b6000806040838503121561158f57600080fd5b611598836114df565b9150602083013580151581146115ad57600080fd5b809150509250929050565b634e487b7160e01b600052604160045260246000fd5b600067ffffffffffffffff808411156115e9576115e96115b8565b604051601f8501601f19908116603f01168101908282118183101715611611576116116115b8565b8160405280935085815286868601111561162a57600080fd5b858560208301376000602087830101525050509392505050565b6000806000806080858703121561165a57600080fd5b611663856114df565b9350611671602086016114df565b925060408501359150606085013567ffffffffffffffff81111561169457600080fd5b8501601f810187136116a557600080fd5b6116b4878235602084016115ce565b91505092959194509250565b600080604083850312156116d357600080fd5b6116dc836114df565b91506116ea602084016114df565b90509250929050565b6000806040838503121561170657600080fd5b61170f836114df565b9150602083013567ffffffffffffffff81111561172b57600080fd5b8301601f8101851361173c57600080fd5b61174b858235602084016115ce565b9150509250929050565b600181811c9082168061176957607f821691505b60208210810361178957634e487b7160e01b600052602260045260246000fd5b50919050565b60208082526031908201527f4552433732313a207472616e736665722063616c6c6572206973206e6f74206f6040820152701ddb995c881b9bdc88185c1c1c9bdd9959607a1b606082015260800190565b600083516117f281846020880161145b565b83519083019061180681836020880161145b565b01949350505050565b634e487b7160e01b600052601160045260246000fd5b6000828210156118375761183761180f565b500390565b6000821982111561184f5761184f61180f565b500190565b60208082526032908201527f4552433732313a207472616e7366657220746f206e6f6e20455243373231526560408201527131b2b4bb32b91034b6b83632b6b2b73a32b960711b606082015260800190565b6001600160a01b03858116825284166020820152604081018390526080606082018190526000906118d990830184611487565b9695505050505050565b6000602082840312156118f557600080fd5b81516109c381611428565b6000600182016119125761191261180f565b5060010190565b634e487b7160e01b600052601260045260246000fd5b60008261193e5761193e611919565b500490565b60008261195257611952611919565b500690565b634e487b7160e01b600052603260045260246000fdfea2646970667358221220f0e89fbfcf9269d7fb43faac9e7938a400e9ebf80c018cd9e766bbc6fd62d9c064736f6c634300080d0033",
    "sourcePath": "/Users/kjwook/Desktop/grayworld/bridge/backend/contracts/eth/GrayFreshmanCollection.sol",
    "compiler": {
        "name": "solc",
        "version": "0.8.13+commit.abaa5c0e"
    },
    "functionHashes": {
        "admin()": "f851a440",
        "approve(address,uint256)": "095ea7b3",
        "balanceOf(address)": "70a08231",
        "getApproved(uint256)": "081812fc",
        "isApprovedForAll(address,address)": "e985e9c5",
        "mintNFT(address,string)": "eacabe14",
        "name()": "06fdde03",
        "owner()": "8da5cb5b",
        "ownerOf(uint256)": "6352211e",
        "renounceOwnership()": "715018a6",
        "safeTransferFrom(address,address,uint256)": "42842e0e",
        "safeTransferFrom(address,address,uint256,bytes)": "b88d4fde",
        "setApprovalForAll(address,bool)": "a22cb465",
        "supportsInterface(bytes4)": "01ffc9a7",
        "symbol()": "95d89b41",
        "tokenURI(uint256)": "c87b56dd",
        "transferFrom(address,address,uint256)": "23b872dd",
        "transferOwnership(address)": "f2fde38b",
        "updateAdmin(address)": "e2f273bd"
    },
    "gasEstimates": {
        "creation": {
            "codeDepositCost": "1312600",
            "executionCost": "infinite",
            "totalCost": "infinite"
        },
        "external": {
            "admin()": "2447",
            "approve(address,uint256)": "infinite",
            "balanceOf(address)": "2678",
            "getApproved(uint256)": "4799",
            "isApprovedForAll(address,address)": "infinite",
            "mintNFT(address,string)": "infinite",
            "name()": "infinite",
            "owner()": "2354",
            "ownerOf(uint256)": "2623",
            "renounceOwnership()": "28228",
            "safeTransferFrom(address,address,uint256)": "infinite",
            "safeTransferFrom(address,address,uint256,bytes)": "infinite",
            "setApprovalForAll(address,bool)": "26750",
            "supportsInterface(bytes4)": "534",
            "symbol()": "infinite",
            "tokenURI(uint256)": "infinite",
            "transferFrom(address,address,uint256)": "infinite",
            "transferOwnership(address)": "28400",
            "updateAdmin(address)": "26733"
        }
    }
}