{
    "contractName": "GrayCollection",
    "abi": [
        {
            "inputs": [
                {
                    "internalType": "string",
                    "name": "name",
                    "type": "string"
                },
                {
                    "internalType": "string",
                    "name": "symbol",
                    "type": "string"
                }
            ],
            "stateMutability": "nonpayable",
            "type": "constructor"
        },
        {
            "anonymous": false,
            "inputs": [
                {
                    "indexed": true,
                    "internalType": "address",
                    "name": "owner",
                    "type": "address"
                },
                {
                    "indexed": true,
                    "internalType": "address",
                    "name": "approved",
                    "type": "address"
                },
                {
                    "indexed": true,
                    "internalType": "uint256",
                    "name": "tokenId",
                    "type": "uint256"
                }
            ],
            "name": "Approval",
            "type": "event"
        },
        {
            "anonymous": false,
            "inputs": [
                {
                    "indexed": true,
                    "internalType": "address",
                    "name": "owner",
                    "type": "address"
                },
                {
                    "indexed": true,
                    "internalType": "address",
                    "name": "operator",
                    "type": "address"
                },
                {
                    "indexed": false,
                    "internalType": "bool",
                    "name": "approved",
                    "type": "bool"
                }
            ],
            "name": "ApprovalForAll",
            "type": "event"
        },
        {
            "anonymous": false,
            "inputs": [
                {
                    "indexed": true,
                    "internalType": "address",
                    "name": "previousOwner",
                    "type": "address"
                },
                {
                    "indexed": true,
                    "internalType": "address",
                    "name": "newOwner",
                    "type": "address"
                }
            ],
            "name": "OwnershipTransferred",
            "type": "event"
        },
        {
            "anonymous": false,
            "inputs": [
                {
                    "indexed": true,
                    "internalType": "address",
                    "name": "from",
                    "type": "address"
                },
                {
                    "indexed": true,
                    "internalType": "address",
                    "name": "to",
                    "type": "address"
                },
                {
                    "indexed": true,
                    "internalType": "uint256",
                    "name": "tokenId",
                    "type": "uint256"
                }
            ],
            "name": "Transfer",
            "type": "event"
        },
        {
            "inputs": [],
            "name": "admin",
            "outputs": [
                {
                    "internalType": "address",
                    "name": "",
                    "type": "address"
                }
            ],
            "stateMutability": "view",
            "type": "function"
        },
        {
            "inputs": [
                {
                    "internalType": "address",
                    "name": "to",
                    "type": "address"
                },
                {
                    "internalType": "uint256",
                    "name": "tokenId",
                    "type": "uint256"
                }
            ],
            "name": "approve",
            "outputs": [],
            "stateMutability": "nonpayable",
            "type": "function"
        },
        {
            "inputs": [
                {
                    "internalType": "address",
                    "name": "owner",
                    "type": "address"
                }
            ],
            "name": "balanceOf",
            "outputs": [
                {
                    "internalType": "uint256",
                    "name": "",
                    "type": "uint256"
                }
            ],
            "stateMutability": "view",
            "type": "function"
        },
        {
            "inputs": [
                {
                    "internalType": "uint256",
                    "name": "tokenId",
                    "type": "uint256"
                }
            ],
            "name": "getApproved",
            "outputs": [
                {
                    "internalType": "address",
                    "name": "",
                    "type": "address"
                }
            ],
            "stateMutability": "view",
            "type": "function"
        },
        {
            "inputs": [
                {
                    "internalType": "address",
                    "name": "owner",
                    "type": "address"
                },
                {
                    "internalType": "address",
                    "name": "operator",
                    "type": "address"
                }
            ],
            "name": "isApprovedForAll",
            "outputs": [
                {
                    "internalType": "bool",
                    "name": "",
                    "type": "bool"
                }
            ],
            "stateMutability": "view",
            "type": "function"
        },
        {
            "inputs": [
                {
                    "internalType": "address",
                    "name": "recipient",
                    "type": "address"
                },
                {
                    "internalType": "string",
                    "name": "tokenURI",
                    "type": "string"
                }
            ],
            "name": "mintNFT",
            "outputs": [
                {
                    "internalType": "uint256",
                    "name": "",
                    "type": "uint256"
                }
            ],
            "stateMutability": "nonpayable",
            "type": "function"
        },
        {
            "inputs": [],
            "name": "name",
            "outputs": [
                {
                    "internalType": "string",
                    "name": "",
                    "type": "string"
                }
            ],
            "stateMutability": "view",
            "type": "function"
        },
        {
            "inputs": [],
            "name": "owner",
            "outputs": [
                {
                    "internalType": "address",
                    "name": "",
                    "type": "address"
                }
            ],
            "stateMutability": "view",
            "type": "function"
        },
        {
            "inputs": [
                {
                    "internalType": "uint256",
                    "name": "tokenId",
                    "type": "uint256"
                }
            ],
            "name": "ownerOf",
            "outputs": [
                {
                    "internalType": "address",
                    "name": "",
                    "type": "address"
                }
            ],
            "stateMutability": "view",
            "type": "function"
        },
        {
            "inputs": [],
            "name": "renounceOwnership",
            "outputs": [],
            "stateMutability": "nonpayable",
            "type": "function"
        },
        {
            "inputs": [
                {
                    "internalType": "address",
                    "name": "from",
                    "type": "address"
                },
                {
                    "internalType": "address",
                    "name": "to",
                    "type": "address"
                },
                {
                    "internalType": "uint256",
                    "name": "tokenId",
                    "type": "uint256"
                }
            ],
            "name": "safeTransferFrom",
            "outputs": [],
            "stateMutability": "nonpayable",
            "type": "function"
        },
        {
            "inputs": [
                {
                    "internalType": "address",
                    "name": "from",
                    "type": "address"
                },
                {
                    "internalType": "address",
                    "name": "to",
                    "type": "address"
                },
                {
                    "internalType": "uint256",
                    "name": "tokenId",
                    "type": "uint256"
                },
                {
                    "internalType": "bytes",
                    "name": "_data",
                    "type": "bytes"
                }
            ],
            "name": "safeTransferFrom",
            "outputs": [],
            "stateMutability": "nonpayable",
            "type": "function"
        },
        {
            "inputs": [
                {
                    "internalType": "address",
                    "name": "operator",
                    "type": "address"
                },
                {
                    "internalType": "bool",
                    "name": "approved",
                    "type": "bool"
                }
            ],
            "name": "setApprovalForAll",
            "outputs": [],
            "stateMutability": "nonpayable",
            "type": "function"
        },
        {
            "inputs": [
                {
                    "internalType": "bytes4",
                    "name": "interfaceId",
                    "type": "bytes4"
                }
            ],
            "name": "supportsInterface",
            "outputs": [
                {
                    "internalType": "bool",
                    "name": "",
                    "type": "bool"
                }
            ],
            "stateMutability": "view",
            "type": "function"
        },
        {
            "inputs": [],
            "name": "symbol",
            "outputs": [
                {
                    "internalType": "string",
                    "name": "",
                    "type": "string"
                }
            ],
            "stateMutability": "view",
            "type": "function"
        },
        {
            "inputs": [
                {
                    "internalType": "uint256",
                    "name": "tokenId",
                    "type": "uint256"
                }
            ],
            "name": "tokenURI",
            "outputs": [
                {
                    "internalType": "string",
                    "name": "",
                    "type": "string"
                }
            ],
            "stateMutability": "view",
            "type": "function"
        },
        {
            "inputs": [
                {
                    "internalType": "address",
                    "name": "from",
                    "type": "address"
                },
                {
                    "internalType": "address",
                    "name": "to",
                    "type": "address"
                },
                {
                    "internalType": "uint256",
                    "name": "tokenId",
                    "type": "uint256"
                }
            ],
            "name": "transferFrom",
            "outputs": [],
            "stateMutability": "nonpayable",
            "type": "function"
        },
        {
            "inputs": [
                {
                    "internalType": "address",
                    "name": "newOwner",
                    "type": "address"
                }
            ],
            "name": "transferOwnership",
            "outputs": [],
            "stateMutability": "nonpayable",
            "type": "function"
        }
    ],
    "bytecode": "60806040523480156200001157600080fd5b5060405162001c3538038062001c35833981016040819052620000349162000263565b8151829082906200004d906000906020850190620000f0565b50805162000063906001906020840190620000f0565b505050620000806200007a6200009a60201b60201c565b6200009e565b5050600980546001600160a01b0319163317905562000309565b3390565b600780546001600160a01b038381166001600160a01b0319831681179093556040519116919082907f8be0079c531659141344cd1fd0a4f28419497f9722a3daafe3b4186f6b6457e090600090a35050565b828054620000fe90620002cd565b90600052602060002090601f0160209004810192826200012257600085556200016d565b82601f106200013d57805160ff19168380011785556200016d565b828001600101855582156200016d579182015b828111156200016d57825182559160200191906001019062000150565b506200017b9291506200017f565b5090565b5b808211156200017b576000815560010162000180565b634e487b7160e01b600052604160045260246000fd5b600082601f830112620001be57600080fd5b81516001600160401b0380821115620001db57620001db62000196565b604051601f8301601f19908116603f0116810190828211818310171562000206576200020662000196565b816040528381526020925086838588010111156200022357600080fd5b600091505b8382101562000247578582018301518183018401529082019062000228565b83821115620002595760008385830101525b9695505050505050565b600080604083850312156200027757600080fd5b82516001600160401b03808211156200028f57600080fd5b6200029d86838701620001ac565b93506020850151915080821115620002b457600080fd5b50620002c385828601620001ac565b9150509250929050565b600181811c90821680620002e257607f821691505b6020821081036200030357634e487b7160e01b600052602260045260246000fd5b50919050565b61191c80620003196000396000f3fe608060405234801561001057600080fd5b50600436106101165760003560e01c80638da5cb5b116100a2578063c87b56dd11610071578063c87b56dd14610239578063e985e9c51461024c578063eacabe1414610288578063f2fde38b1461029b578063f851a440146102ae57600080fd5b80638da5cb5b146101fa57806395d89b411461020b578063a22cb46514610213578063b88d4fde1461022657600080fd5b806323b872dd116100e957806323b872dd1461019857806342842e0e146101ab5780636352211e146101be57806370a08231146101d1578063715018a6146101f257600080fd5b806301ffc9a71461011b57806306fdde0314610143578063081812fc14610158578063095ea7b314610183575b600080fd5b61012e6101293660046113b7565b6102c1565b60405190151581526020015b60405180910390f35b61014b610313565b60405161013a919061142c565b61016b61016636600461143f565b6103a5565b6040516001600160a01b03909116815260200161013a565b610196610191366004611474565b610432565b005b6101966101a636600461149e565b610547565b6101966101b936600461149e565b610578565b61016b6101cc36600461143f565b610593565b6101e46101df3660046114da565b61060a565b60405190815260200161013a565b610196610691565b6007546001600160a01b031661016b565b61014b6106f7565b6101966102213660046114f5565b610706565b6101966102343660046115bd565b610715565b61014b61024736600461143f565b61074d565b61012e61025a366004611639565b6001600160a01b03918216600090815260056020908152604080832093909416825291909152205460ff1690565b6101e461029636600461166c565b6108c3565b6101966102a93660046114da565b610943565b60095461016b906001600160a01b031681565b60006001600160e01b031982166380ac58cd60e01b14806102f257506001600160e01b03198216635b5e139f60e01b145b8061030d57506301ffc9a760e01b6001600160e01b03198316145b92915050565b606060008054610322906116ce565b80601f016020809104026020016040519081016040528092919081815260200182805461034e906116ce565b801561039b5780601f106103705761010080835404028352916020019161039b565b820191906000526020600020905b81548152906001019060200180831161037e57829003601f168201915b5050505050905090565b60006103b082610a0e565b6104165760405162461bcd60e51b815260206004820152602c60248201527f4552433732313a20617070726f76656420717565727920666f72206e6f6e657860448201526b34b9ba32b73a103a37b5b2b760a11b60648201526084015b60405180910390fd5b506000908152600460205260409020546001600160a01b031690565b600061043d82610593565b9050806001600160a01b0316836001600160a01b0316036104aa5760405162461bcd60e51b815260206004820152602160248201527f4552433732313a20617070726f76616c20746f2063757272656e74206f776e656044820152603960f91b606482015260840161040d565b336001600160a01b03821614806104c657506104c6813361025a565b6105385760405162461bcd60e51b815260206004820152603860248201527f4552433732313a20617070726f76652063616c6c6572206973206e6f74206f7760448201527f6e6572206e6f7220617070726f76656420666f7220616c6c0000000000000000606482015260840161040d565b6105428383610a2b565b505050565b6105513382610a99565b61056d5760405162461bcd60e51b815260040161040d90611708565b610542838383610b82565b61054283838360405180602001604052806000815250610715565b6000818152600260205260408120546001600160a01b03168061030d5760405162461bcd60e51b815260206004820152602960248201527f4552433732313a206f776e657220717565727920666f72206e6f6e657869737460448201526832b73a103a37b5b2b760b91b606482015260840161040d565b60006001600160a01b0382166106755760405162461bcd60e51b815260206004820152602a60248201527f4552433732313a2062616c616e636520717565727920666f7220746865207a65604482015269726f206164647265737360b01b606482015260840161040d565b506001600160a01b031660009081526003602052604090205490565b6007546001600160a01b031633146106eb5760405162461bcd60e51b815260206004820181905260248201527f4f776e61626c653a2063616c6c6572206973206e6f7420746865206f776e6572604482015260640161040d565b6106f56000610d1e565b565b606060018054610322906116ce565b610711338383610d70565b5050565b61071f3383610a99565b61073b5760405162461bcd60e51b815260040161040d90611708565b61074784848484610e3e565b50505050565b606061075882610a0e565b6107be5760405162461bcd60e51b815260206004820152603160248201527f45524337323155524953746f726167653a2055524920717565727920666f72206044820152703737b732bc34b9ba32b73a103a37b5b2b760791b606482015260840161040d565b600082815260066020526040812080546107d7906116ce565b80601f0160208091040260200160405190810160405280929190818152602001828054610803906116ce565b80156108505780601f1061082557610100808354040283529160200191610850565b820191906000526020600020905b81548152906001019060200180831161083357829003601f168201915b50505050509050600061086e60408051602081019091526000815290565b90508051600003610880575092915050565b8151156108b257808260405160200161089a929190611759565b60405160208183030381529060405292505050919050565b6108bb84610e71565b949350505050565b6009546000906001600160a01b0316331461090d5760405162461bcd60e51b815260206004820152600a60248201526937b7363c9030b236b4b760b11b604482015260640161040d565b61091b600880546001019055565b600061092660085490565b90506109328482610f48565b61093c818461107b565b9392505050565b6007546001600160a01b0316331461099d5760405162461bcd60e51b815260206004820181905260248201527f4f776e61626c653a2063616c6c6572206973206e6f7420746865206f776e6572604482015260640161040d565b6001600160a01b038116610a025760405162461bcd60e51b815260206004820152602660248201527f4f776e61626c653a206e6577206f776e657220697320746865207a65726f206160448201526564647265737360d01b606482015260840161040d565b610a0b81610d1e565b50565b6000908152600260205260409020546001600160a01b0316151590565b600081815260046020526040902080546001600160a01b0319166001600160a01b0384169081179091558190610a6082610593565b6001600160a01b03167f8c5be1e5ebec7d5bd14f71427d1e84f3dd0314c0f7b2291e5b200ac8c7c3b92560405160405180910390a45050565b6000610aa482610a0e565b610b055760405162461bcd60e51b815260206004820152602c60248201527f4552433732313a206f70657261746f7220717565727920666f72206e6f6e657860448201526b34b9ba32b73a103a37b5b2b760a11b606482015260840161040d565b6000610b1083610593565b9050806001600160a01b0316846001600160a01b03161480610b5757506001600160a01b0380821660009081526005602090815260408083209388168352929052205460ff165b806108bb5750836001600160a01b0316610b70846103a5565b6001600160a01b031614949350505050565b826001600160a01b0316610b9582610593565b6001600160a01b031614610bf95760405162461bcd60e51b815260206004820152602560248201527f4552433732313a207472616e736665722066726f6d20696e636f72726563742060448201526437bbb732b960d91b606482015260840161040d565b6001600160a01b038216610c5b5760405162461bcd60e51b8152602060048201526024808201527f4552433732313a207472616e7366657220746f20746865207a65726f206164646044820152637265737360e01b606482015260840161040d565b610c66600082610a2b565b6001600160a01b0383166000908152600360205260408120805460019290610c8f90849061179e565b90915550506001600160a01b0382166000908152600360205260408120805460019290610cbd9084906117b5565b909155505060008181526002602052604080822080546001600160a01b0319166001600160a01b0386811691821790925591518493918716917fddf252ad1be2c89b69c2b068fc378daa952ba7f163c4a11628f55a4df523b3ef91a4505050565b600780546001600160a01b038381166001600160a01b0319831681179093556040519116919082907f8be0079c531659141344cd1fd0a4f28419497f9722a3daafe3b4186f6b6457e090600090a35050565b816001600160a01b0316836001600160a01b031603610dd15760405162461bcd60e51b815260206004820152601960248201527f4552433732313a20617070726f766520746f2063616c6c657200000000000000604482015260640161040d565b6001600160a01b03838116600081815260056020908152604080832094871680845294825291829020805460ff191686151590811790915591519182527f17307eab39ab6107e8899845ad3d59bd9653f200f220920489ca2b5937696c31910160405180910390a3505050565b610e49848484610b82565b610e5584848484611106565b6107475760405162461bcd60e51b815260040161040d906117cd565b6060610e7c82610a0e565b610ee05760405162461bcd60e51b815260206004820152602f60248201527f4552433732314d657461646174613a2055524920717565727920666f72206e6f60448201526e3732bc34b9ba32b73a103a37b5b2b760891b606482015260840161040d565b6000610ef760408051602081019091526000815290565b90506000815111610f17576040518060200160405280600081525061093c565b80610f2184611207565b604051602001610f32929190611759565b6040516020818303038152906040529392505050565b6001600160a01b038216610f9e5760405162461bcd60e51b815260206004820181905260248201527f4552433732313a206d696e7420746f20746865207a65726f2061646472657373604482015260640161040d565b610fa781610a0e565b15610ff45760405162461bcd60e51b815260206004820152601c60248201527f4552433732313a20746f6b656e20616c7265616479206d696e74656400000000604482015260640161040d565b6001600160a01b038216600090815260036020526040812080546001929061101d9084906117b5565b909155505060008181526002602052604080822080546001600160a01b0319166001600160a01b03861690811790915590518392907fddf252ad1be2c89b69c2b068fc378daa952ba7f163c4a11628f55a4df523b3ef908290a45050565b61108482610a0e565b6110e75760405162461bcd60e51b815260206004820152602e60248201527f45524337323155524953746f726167653a2055524920736574206f66206e6f6e60448201526d32bc34b9ba32b73a103a37b5b2b760911b606482015260840161040d565b6000828152600660209081526040909120825161054292840190611308565b60006001600160a01b0384163b156111fc57604051630a85bd0160e11b81526001600160a01b0385169063150b7a029061114a90339089908890889060040161181f565b6020604051808303816000875af1925050508015611185575060408051601f3d908101601f191682019092526111829181019061185c565b60015b6111e2573d8080156111b3576040519150601f19603f3d011682016040523d82523d6000602084013e6111b8565b606091505b5080516000036111da5760405162461bcd60e51b815260040161040d906117cd565b805181602001fd5b6001600160e01b031916630a85bd0160e11b1490506108bb565b506001949350505050565b60608160000361122e5750506040805180820190915260018152600360fc1b602082015290565b8160005b8115611258578061124281611879565b91506112519050600a836118a8565b9150611232565b60008167ffffffffffffffff81111561127357611273611531565b6040519080825280601f01601f19166020018201604052801561129d576020820181803683370190505b5090505b84156108bb576112b260018361179e565b91506112bf600a866118bc565b6112ca9060306117b5565b60f81b8183815181106112df576112df6118d0565b60200101906001600160f81b031916908160001a905350611301600a866118a8565b94506112a1565b828054611314906116ce565b90600052602060002090601f016020900481019282611336576000855561137c565b82601f1061134f57805160ff191683800117855561137c565b8280016001018555821561137c579182015b8281111561137c578251825591602001919060010190611361565b5061138892915061138c565b5090565b5b80821115611388576000815560010161138d565b6001600160e01b031981168114610a0b57600080fd5b6000602082840312156113c957600080fd5b813561093c816113a1565b60005b838110156113ef5781810151838201526020016113d7565b838111156107475750506000910152565b600081518084526114188160208601602086016113d4565b601f01601f19169290920160200192915050565b60208152600061093c6020830184611400565b60006020828403121561145157600080fd5b5035919050565b80356001600160a01b038116811461146f57600080fd5b919050565b6000806040838503121561148757600080fd5b61149083611458565b946020939093013593505050565b6000806000606084860312156114b357600080fd5b6114bc84611458565b92506114ca60208501611458565b9150604084013590509250925092565b6000602082840312156114ec57600080fd5b61093c82611458565b6000806040838503121561150857600080fd5b61151183611458565b91506020830135801515811461152657600080fd5b809150509250929050565b634e487b7160e01b600052604160045260246000fd5b600067ffffffffffffffff8084111561156257611562611531565b604051601f8501601f19908116603f0116810190828211818310171561158a5761158a611531565b816040528093508581528686860111156115a357600080fd5b858560208301376000602087830101525050509392505050565b600080600080608085870312156115d357600080fd5b6115dc85611458565b93506115ea60208601611458565b925060408501359150606085013567ffffffffffffffff81111561160d57600080fd5b8501601f8101871361161e57600080fd5b61162d87823560208401611547565b91505092959194509250565b6000806040838503121561164c57600080fd5b61165583611458565b915061166360208401611458565b90509250929050565b6000806040838503121561167f57600080fd5b61168883611458565b9150602083013567ffffffffffffffff8111156116a457600080fd5b8301601f810185136116b557600080fd5b6116c485823560208401611547565b9150509250929050565b600181811c908216806116e257607f821691505b60208210810361170257634e487b7160e01b600052602260045260246000fd5b50919050565b60208082526031908201527f4552433732313a207472616e736665722063616c6c6572206973206e6f74206f6040820152701ddb995c881b9bdc88185c1c1c9bdd9959607a1b606082015260800190565b6000835161176b8184602088016113d4565b83519083019061177f8183602088016113d4565b01949350505050565b634e487b7160e01b600052601160045260246000fd5b6000828210156117b0576117b0611788565b500390565b600082198211156117c8576117c8611788565b500190565b60208082526032908201527f4552433732313a207472616e7366657220746f206e6f6e20455243373231526560408201527131b2b4bb32b91034b6b83632b6b2b73a32b960711b606082015260800190565b6001600160a01b038581168252841660208201526040810183905260806060820181905260009061185290830184611400565b9695505050505050565b60006020828403121561186e57600080fd5b815161093c816113a1565b60006001820161188b5761188b611788565b5060010190565b634e487b7160e01b600052601260045260246000fd5b6000826118b7576118b7611892565b500490565b6000826118cb576118cb611892565b500690565b634e487b7160e01b600052603260045260246000fdfea2646970667358221220720ef0e87f95758f09187d9a53cad1a6438625808e180c9875a2d8067603f2ce64736f6c634300080d0033",
    "sourcePath": "/Users/kjwook/Desktop/grayworld/bridge/backend/contracts/eth/GrayCollection.sol",
    "compiler": {
        "name": "solc",
        "version": "0.8.13+commit.abaa5c0e"
    },
    "functionHashes": {
        "admin()": "f851a440",
        "approve(address,uint256)": "095ea7b3",
        "balanceOf(address)": "70a08231",
        "getApproved(uint256)": "081812fc",
        "isApprovedForAll(address,address)": "e985e9c5",
        "mintNFT(address,string)": "eacabe14",
        "name()": "06fdde03",
        "owner()": "8da5cb5b",
        "ownerOf(uint256)": "6352211e",
        "renounceOwnership()": "715018a6",
        "safeTransferFrom(address,address,uint256)": "42842e0e",
        "safeTransferFrom(address,address,uint256,bytes)": "b88d4fde",
        "setApprovalForAll(address,bool)": "a22cb465",
        "supportsInterface(bytes4)": "01ffc9a7",
        "symbol()": "95d89b41",
        "tokenURI(uint256)": "c87b56dd",
        "transferFrom(address,address,uint256)": "23b872dd",
        "transferOwnership(address)": "f2fde38b"
    },
    "gasEstimates": {
        "creation": {
            "codeDepositCost": "1285600",
            "executionCost": "infinite",
            "totalCost": "infinite"
        },
        "external": {
            "admin()": "2447",
            "approve(address,uint256)": "infinite",
            "balanceOf(address)": "2678",
            "getApproved(uint256)": "4799",
            "isApprovedForAll(address,address)": "infinite",
            "mintNFT(address,string)": "infinite",
            "name()": "infinite",
            "owner()": "2354",
            "ownerOf(uint256)": "2623",
            "renounceOwnership()": "28228",
            "safeTransferFrom(address,address,uint256)": "infinite",
            "safeTransferFrom(address,address,uint256,bytes)": "infinite",
            "setApprovalForAll(address,bool)": "26750",
            "supportsInterface(bytes4)": "534",
            "symbol()": "infinite",
            "tokenURI(uint256)": "infinite",
            "transferFrom(address,address,uint256)": "infinite",
            "transferOwnership(address)": "28400"
        }
    }
}